:100000000C9489030C9494070C946C070C94F503DE
:100010000C94F5030C94F5030C94F5030C94F50380
:100020000C94F5030C94F5030C948D150C94F503C6
:100030000C94741A0C94F5030C94F5030C94F503CA
:100040000C94F5030C94F5030C94F5030C94F50350
:100050000C94C10E0C94C91A0C94F5030C94F5037E
:100060000C94F5030C94F5030C94F5030C94F50330
:100070000C94F5030C94F5030C94F5030C94F50320
:100080000C94F5030C94F5030C94F5030C94F50310
:100090000C94F5030C94F5030C94F5030C94F50300
:1000A0000C94F5030C94F5030C94F5033209400904
:1000B0004C094C0924094C094C094C094C094C09C0
:1000C0004C094C094C094C094C094C094C094C0988
:1000D00026094C0928094C094C094C094C094409CA
:1000E0004C094E0942094C094C094C094C094C0970
:1000F0004C094C094C094C094C094C094C094C0958
:100100001C0938092A093C094C092C094C093009F9
:100110004C093A092E093E09340936094C094C09A3
:100120004C094C094C094C094C091E0920092209AB
:10013000460948094C094C094C094A09EA09EC09E5
:10014000F609F609F609F609F609F609EE09F009C5
:10015000B209F609F609EC09F909F609F609B20936
:10016000EA09F609F609F009F609F609F609F609A9
:10017000F609F609B409EA09D609F609DA09F60911
:10018000F609F609B609EE09F609F609E409F609D1
:10019000F609F609B809F409F609D809F609EC09CF
:1001A000F609F609E809DC09F609DE09F009F6099D
:1001B000F609F609E609E009F609F609F609F6096D
:1001C000F609F609F609E209F609BA09F609F60987
:1001D000EE09F609F609F409F609F609F609F60931
:1001E000F609F609F609F609F609BC09F609F60951
:1001F000F609E409F609F609F609F609F609F60919
:10020000F609F609F609F609BE09F609C009C20998
:10021000F609F609F609C409C609C809F609CA09A2
:10022000CC09F609F609F609F209CE09F609D20950
:10023000D009D409F609F609F609F609F409960A6F
:10024000DF0AC40AF10A060B0E0B150B190B1E0B65
:10025000250B320B450C470C490C4B0C4D0C550C27
:10026000550C550C4F0C510C530CCE0CD80CE80C03
:10027000F00CFC0C060D180D230D390D4B0DC10DA6
:10028000CF0D090E020EDB130214FA140214FA1435
:100290004E147114FA14C814D7148800EA44E944BF
:1002A000E2440400050006000700080009000A00F7
:1002B0000B000C000D000E000F00100011001200CA
:1002C00013001400150016001700180019001A007A
:1002D0001B001C001D001E001F002000210022002A
:1002E00023002400250026002700280029002A00DA
:1002F0002B002C002D002E002F003000310032008A
:1003000033003400350036003700380039003A0039
:100310003B003C003D003E003F00400041004200E9
:1003200043004400450046004700480049004A0099
:100330004B004C004D004E004F0050005100520049
:1003400053005400550056005700580059005A00F9
:100350005B005C005D005E005F00600061006200A9
:100360006300640065A185006700680069006A0099
:100370006B006C006D006E006F0070007100720009
:100380007300890087008A008B00E000E100E20032
:10039000E300E400E500E600E700010001000100E1
:1003A0000100EA4401000100E244010001000100F3
:1003B0000100460001004A004B0001000100470017
:1003C000480001000100E9440100010001000100B2
:1003D0000100010001003A003B003C003D003E00EE
:1003E0003F004000410042004300010035004C0046
:1003F000390001004400450052004900010001009D
:1004000050004F0029004D004E0051000100010036
:1004100001000100010001000100010001000100D4
:1004200001000100010001000100010001000100C4
:1004300001000100010001004D004A004E004B0088
:1004400001000100010001000100010001000100A4
:100450000100010001000100010001000100010094
:100460000100010001000100010001000100010084
:100470000100010001000100010001000100010074
:10048000010049000100010001000100010001001C
:1004900001000100010001000100007B4601020390
:1004A000763A687F6577482B353B697879643914EB
:1004B0001E3C6A7A1D16041A1F3D6B061B07082195
:1004C000203E6C2C19091715223F6D11050B0A1CD3
:1004D00023406E7E100D182425416F360E0C122716
:1004E00026427037380F33132D43717534322F2E57
:1004F00044727C7D28303174457351504A524D49C5
:100500002A5466594F5C5F4C4B4E62635A5D5E6085
:10051000295367585B56576147554842403E3C3A1D
:100520003B456843413F3D2B357E697A790078141D
:100530001E7B6A7C1D16041A1F7F6B061B07082191
:1005400020656C2C19091715224A6D11050B0A1C20
:10055000234C6E49100D182425516F360E0C1227AE
:10056000264F7037380F33132D52717534502F2E9C
:100570004E72397D28304D314B7354645867760183
:100580002A773259745C5F66020362635A5D5E606B
:10059000295344575B565561474680291E1F202129
:1005A0002223242526272D2E2A2B141A0815171C42
:1005B000180C12132F302878041607090A0B0D0E99
:1005C0000F33343579311D1B0619051110363738B4
:1005D0007D557A2C393A3B3C3D3E3F4041424353A6
:1005E000475F6061565C5D5E57595A5B626346487F
:1005F000644445677B7F650301025250514F68692F
:100600006A6B6C6D6E6F7071725800494C754A4D13
:10061000734B4E767C777E746654340349004200F7
:100620004D0020005000430020006B006500790061
:1006300062006F00610072006400200063006F00C0
:100640006E007600650072007400650072000000A4
:10065000080354004D004B00000004030904090284
:100660003B00020100A03209040000010301010067
:100670000921110100012240000705810308000A39
:1006800009040100010300000009211101000122F9
:100690002200070583034000011201100100000041
:1006A00008EDFEEE1B0102010200010631FF097494
:1006B000A1010975150026FF009540750881020902
:1006C00076150026FF00954075089102C0050109C6
:1006D00006A101050719E029E71500250195087510
:1006E0000181029501750881010508190129059507
:1006F00005750191029501750391010507190029FE
:10070000FF150026FF00950675088100C000B6079A
:100710004B0E11241FBECFEFDAE0DEBFCDBF04B613
:1007200003FE41C080919D0490919E04A0919F047E
:10073000B091A0048730904BA740B04BA1F5109228
:100740009D0410929E0410929F041092A00414BE67
:100750000FB6F894A895809160008861809360003E
:10076000109260000FBE1092010810920008E3E0A2
:10077000F0E089E080935700E491E695E370E15062
:10078000E33040F4F0E0EE0FFF1FE95EFC4F8081A4
:10079000918102C080E090E1E0E0F0E8E81BF90B15
:1007A000F695E795099513E0A0E0B3E0ECE2F6E3F7
:1007B00002C005900D92AE31B107D9F724E0AEE149
:1007C000B3E001C01D92AD39B207E1F713E0C9E80B
:1007D000D3E004C02197FE010E940E1BC738D10749
:1007E000C9F70E94F7100C94141B0C9400005E983B
:1007F0000895FC012AB1938D909592239AB99BB1EB
:10080000838D892B8BB90895FC019AB1838D8095D6
:1008100089238AB99BB1838D892B8BB985E08A9511
:10082000F1F7000099B1838D982381E009F480E00D
:100830000895FC012BB1948D909592239BB99AB1A8
:10084000848D892B8AB90895FC012AB1948D9095E5
:1008500092239AB99BB1848D892B8BB90895FC01A1
:100860009AB1848D809589238AB99BB1848D892B17
:100870008BB985E08A95F1F7000099B1848D9823B2
:1008800081E009F480E008950F931F93CF93DF93E5
:100890008C01EB01C8010E940404882341F02097D9
:1008A00031F085E08A95F1F700002197F3CFCE0172
:1008B000DF91CF911F910F9108950F931F93CF93C5
:1008C000DF938C01EB01C8010E940404811108C070
:1008D000209731F085E08A95F1F700002197F3CF5A
:1008E000CE01DF91CF911F910F910895CF93DF93A8
:1008F000EC010E94F903CE01DF91CF910C94240406
:100900003BB1FC01238D209523232BB93AB1238DD4
:10091000232B2AB90C942404CF93DF93EC010E947B
:10092000F703CE01DF91CF910C9476045E9A0C947C
:100930008004FC01118210821282138280E090E810
:1009400095838483178210860895CF93DF93EC01FB
:100950002E9826982F9827980E9480040E94710E46
:10096000569A5E9A1DBA85E08093690010926A00DB
:100970008FEF8CBB83E08DBB5E9ACE01DF91CF9170
:100980000C949904CF93DF93EC018F8190E0019652
:100990008F709927288530E08217930741F4CE01A4
:1009A0000E9499040E94F703CE010E9476042FB79B
:1009B000F89498858F81891749F0FE01E90FF11DA0
:1009C00081859F5F9F70988790E002C08FEF9FEFB7
:1009D0002FBFDF91CF9108950F931F93CF938C0179
:1009E000CAE1C15071F0C8010E94C2048F3F2FEFCD
:1009F000920749F48FE99FE00197F1F700C00000EA
:100A0000F0CF8FEF9FEFCF911F910F9108954F92ED
:100A10005F926F927F928F929F92AF92BF92CF928E
:100A2000DF92EF92FF920F931F93CF93DF93EC012E
:100A30001B828C819D818115904809F0F7C05E9AD8
:100A40002BE0C22EDD24D394062F10E0BB24B394F8
:100A500038E0432E47E0542E56E0A52E65E0962E52
:100A600074E0872EE3E07E2EF2E06F2ECE010E942E
:100A700080048FE193E00197F1F700C00000CE0100
:100A80000E9419048FE193E00197F1F700C0000084
:100A9000CE010E94F90368E97AE3CE010E94440482
:100AA000892B11F4BB826FC0E12CF12C90E59A9553
:100AB000F1F7C8010E2C02C0959587950A94E2F7CC
:100AC00080FF05C0DB24CE010E94240403C0CE01B8
:100AD0000E94190462E370E0CE010E945D04892B3C
:100AE00011F46B8250C062E370E0CE010E944404B6
:100AF000892B11F47B8247C02FEFE21AF20A88E0BB
:100B0000E816F10499F690E59A95F1F7CE01DD200B
:100B100019F00E94240402C00E94190462E370E0EC
:100B2000CE010E945D04892B11F48B822CC062E3FC
:100B300070E0CE010E944404892B11F49B8223C0F3
:100B400020E52A95F1F7CE010E9424049CE2E92ECB
:100B5000FF24F394CE010E942F04882329F0E1148E
:100B6000F104C9F4AB820FC0EF28E1F38CE2E82E68
:100B7000FF24F394CE010E942F0481111CC0E114C4
:100B8000F10489F45B828B818130D9F5CA94CC2041
:100B9000C1F11B826BCF85E08A95F1F7000091E0EF
:100BA000E91AF108D7CF25E02A95F1F7000081E096
:100BB000E81AF108DFCFEF2829F36CE271E0CE01EB
:100BC0000E945D04892B11F44B82DDCFCE010E947F
:100BD0009904CE010E9476040E94F703CE01DF91B2
:100BE000CF911F910F91FF90EF90DF90CF90BF902A
:100BF000AF909F908F907F906F905F904F900C94EC
:100C0000EC048C819D81998388838B8180618B83A7
:100C1000CE010E9480048FE39FE10197F1F700C0AD
:100C20000000CE010E9476040E94F7038FEF9FEF31
:100C3000DF91CF911F910F91FF90EF90DF90CF90B8
:100C4000BF90AF909F908F907F906F905F904F90EC
:100C50000895FC0141B1528D90918C04248135811D
:100C60002115304811F496830AC08681981B95306F
:100C700030F0848195819183808380E2B0C02481AB
:100C80003581369527953583248381E090E001C036
:100C9000880F5A95EAF7842329F08481958190681A
:100CA000958384838481958199278035910509F402
:100CB00057C090F48031910509F452C020F4892B7B
:100CC00009F4CDC086C08032910509F4C8C08034D3
:100CD000910509F4C4C07DC0803A9105E1F040F46B
:100CE0008038910509F4BBC080399105C9F171C004
:100CF000803C910521F0803D910591F16AC084818D
:100D000095819183808384819581892F992795830B
:100D1000848382E21BC0828181111AC084E629B1DA
:100D2000938D922311F481118EC029B1938D92235A
:100D3000A1F081118EC0848195819183808384810B
:100D40009581892F99279583848381E2828352C07C
:100D50008281813209F083C0EECF811180C0EBCF58
:100D600084819581918380838481958180399A4A99
:100D700011F482E034C0248135818481958124E09E
:100D8000329F212D33271124217056E096958795A7
:100D90005A95E1F78227982F9E7F29F0982F9695F4
:100DA00081708927F8CF811102C081E018C0848149
:100DB000958197FF02C080E101C081E18283848137
:100DC000958126E0969587952A95E1F7958384830A
:100DD00011C01282848195819183808380E883830E
:100DE0009BB1838D809589238BB99AB1838D892B93
:100DF0008AB924C0248135818781DF01A80FB11D04
:100E000019962C938F5F8F70878390E001968F7077
:100E10009927208530E08217930751F45E9A9BB1A1
:100E2000838D809589238BB99AB1838D892B8AB95B
:100E300097818085981302C080E4838380E090E8E6
:100E400095838483089595E09A95F1F70000815089
:100E500066CF25E02A95F1F70000815066CF08950E
:100E60001F93CF93DF93EC01162F6DEE0E940705C1
:100E70008A3F910539F4612FCE01DF91CF911F9107
:100E80000C940705DF91CF911F9108951F920F9247
:100E90000FB60F9211242F933F934F935F936F934D
:100EA0007F938F939F93AF93BF93EF93FF938EE1C5
:100EB00093E00E942906FF91EF91BF91AF919F911E
:100EC0008F917F916F915F914F913F912F910F90F3
:100ED0000FBE0F901F9018950F9209B001B81F9286
:100EE0001FB6AF93BF93A0910203B09103030D927D
:100EF000009084000D92009085000D9200905703A1
:100F00000D92A0930203B33009F4B1E0B093030350
:100F1000BF91AF911FBE1F900F90499902C04E9B89
:100F200002C0189501C0B2CF0F9209B001B81F924C
:100F30001FB6AF93BF93A0910203B09103030D922C
:100F4000009084000D92009085000D920090570350
:100F50000D92A0930203B33009F4B1E0B093030300
:100F6000BF91AF911FBE1F900F901895EEE1F3E077
:100F7000118210821282138280E090E8958384832C
:100F8000168281E0818F128E92E0938F848F089574
:100F9000262F30E094E0359527959A95E1F7277054
:100FA000E62FEF70823069F08330A1F08130E1F4F8
:100FB000F0E080E1289FE00DF11D1124E656FA4F84
:100FC00011C0F0E080E1289FE00DF11D1124E65EE4
:100FD000FA4F08C0F0E080E1289FE00DF11D1124D8
:100FE000E656FB4F8491089580E80895E7E4F3E026
:100FF0001192119283E0E735F807D1F708951F9316
:10100000CF93DF93FC0184810E94C80787FD20C035
:10101000182F1F70C82FD0E094E0D595C7959A95EA
:10102000E1F7612F8C2F0E946A17811111C0CC0F3C
:10103000DD1FC95BDC4F81E090E002C0880F991F83
:101040001A95E2F728813981822B932B9983888323
:10105000DF91CF911F9108951F93CF93DF93FC01F0
:1010600084810E94C80787FD22C0182F1F70C82FD7
:10107000D0E094E0D595C7959A95E1F7612F8C2F34
:101080000E946A17882399F0CC0FDD1FC95BDC4FE3
:1010900081E090E002C0880F991F1A95E2F78095D1
:1010A0009095288139818223932399838883DF91C6
:1010B000CF911F910895CF93DF93CBE3D3E01B82B1
:1010C0001A821C821D820E94F60788819981DF9115
:1010D000CF910C94A50480918B04816080938B0444
:1010E0000C94F607E82FF0E0EE0FFF1FE95BFC4FD2
:1010F0008081918108950C94F6077770E72FF0E0D6
:1011000098E0899FE00DF11D112484E0EE0FFF1F90
:101110008A95E1F76F70E60FF11DEE0FFF1FE6569F
:10112000FD4F859194910895FC018481823070F087
:10113000843061F062FB992790F960FD926061FD57
:101140009460692F808191810C9430070895682FF5
:101150008BE393E00C949408CF92DF92EF92FF928E
:101160000F931F93CF93DF937C016B010E94A21A10
:101170008C010E94B20EF701808191810E94C2040D
:10118000EC01019649F4C8010E94BA1A8C159D051C
:1011900018F40E94790EEFCFCE01DF91CF911F910D
:1011A0000F91FF90EF90DF90CF9008950F931F93D2
:1011B000CF93DF93FC0180819181DC0112962C9109
:1011C0002131F9F08F0162EF0E9407058F3FBFEFD9
:1011D0009B07D1F08A3F9105D1F464EF71E0C8011B
:1011E0000E94AC088F3F2FEF9207A1F0D82FCC2799
:1011F00064EF71E0C8010E94AC08DE01A82BCD01AC
:101200000BC08DEF9FEF08C08FEF9FEF05C08EEFF3
:101210009FEF02C080E090E0DF91CF911F910F918E
:101220000895862F90E0FC017C97E834F105A0F545
:10123000EA5AFF4F0C940E1B85E508958AE5089540
:101240008BE508958CE508958DE508958EE5089564
:101250008FE5089580E6089581E6089582E6089571
:1012600083E608958FE6089581E7089582E708955B
:1012700084E7089585E7089587E7089588E7089546
:101280008AE708958CE708958FE7089580E7089529
:1012900089E708958BE70895862F089584E50895DA
:1012A000CF93DF93EC0199859230A9F128F499232B
:1012B00041F09130C9F045C09330B1F19430D9F18B
:1012C00040C0603E21F0613E21F482E02BC081E00D
:1012D00029C067FD04C0CE010E94FF0733C06F77AD
:1012E000CE010E942C082EC0663359F118F46A32E0
:1012F00029F427C06A3A29F1663B19F167FD05C058
:10130000CE010E941109682F12C06F77CE010E9492
:101310001109682F13C06D3121F06D3991F484E00B
:1013200001C083E089870EC0653459F465E5CE01BC
:101330000E94FF0706C0653C21F465E5CE010E94CE
:101340002C08198680E0DF91CF910895862F90E0D8
:10135000FC013397E138F10508F048C0E256FF4F31
:101360000C940E1B89E1089587E108958FE108959B
:1013700087E2089580E6089582E608958CE5089551
:1013800083E508958FE2089589E3089587E308953A
:101390008FE3089587E408958FE4089586E508951E
:1013A0008EE508958FE7089580E0089585E6089515
:1013B0008EE608958FE6089580E3089588E3089502
:1013C00080E4089588E4089580E5089587E5089508
:1013D0008FE5089588E1089588E0089580E20895F2
:1013E00080E108958DE6089588E20895862F8F772D
:1013F00008958FE00895623309F44AC010F564320D
:1014000009F44CC080F46C3109F44CC028F46B3101
:1014100009F04AC08FE108956D31F1F1633209F0AE
:1014200043C087E208956B3209F440C020F46A3269
:10143000D9F588E408956C3229F16D32A9F581E57A
:1014400008956234E9F048F46433B1F0B8F06A33D7
:1014500009F16C3349F580E308956B34B9F030F449
:10146000633491F0643401F585E608956D34C1F07C
:101470006136D1F48AE6089580E1089588E10895FF
:1014800080E2089588E2089588E3089580E408954D
:1014900080E5089587E508958FE5089587E108952B
:1014A0008EE608958FE60895862F089588E00895C2
:1014B0006B35C9F068F46131F1F020F46E30C9F495
:1014C00084E50895633169F0643599F48BE50895F6
:1014D0006D3559F050F0623651F06C3751F487E7B2
:1014E000089581E108958DE508958AE608958EE0D6
:1014F0000895862F08958FE00895613131F06134A9
:1015000011F48CE70895862F089583E10895CF9311
:10151000DF93EC01EA858E2F90E08B30910508F087
:10152000AAC0FC01E15EFE4F0C940E1B8A819B81D8
:1015300080599B4A029720F4CE010E94580A682FD6
:101540006438A9F030F4603881F0633891F462E0D7
:1015500068C0613E41F0603F21F0603E51F482E09E
:101560006BC081E069C084E067C089E065C06FE757
:1015700058C01A8667FD04C071C01A8667FF77C01D
:101580000E94F6078FEF79C08A819B8180599B4A20
:10159000029720F4CE010E947D0A682F693509F474
:1015A0006AC0603F19F0623119F465C083E044C03D
:1015B0001A8667FDE5CFCE010E94A6094EC08A813A
:1015C0009B8180599B4A029720F4CE010E94580AC1
:1015D000682F633821F0643881F66FE732C062E02B
:1015E00030C08A819B8180599B4A029720F4CE01AA
:1015F0000E947D0A682F1A866231F1F16935E1F1A6
:1016000067FDBECFCE010E94A60930C0643121F033
:10161000603F89F586E010C085E00EC0673759F558
:1016200060E0CE010E94FF0726C0643121F587E00B
:1016300003C0603F01F588E08A871EC06737D9F490
:1016400060E0CE010E942C0816C0603F11F48AE0D1
:10165000F3CF1A86CE010E94FB09682FCE010E94AB
:10166000FF070AC01A86CE010E94FB09682FCE012F
:101670000E942C0801C01A8680E0DF91CF91089566
:101680006C3551F018F4633169F00AC0663731F0F7
:101690006E3731F486E7089581E508958EE7089561
:1016A000862F08958DE50895663809F466C058F5CB
:1016B000673609F450C0A0F46C3509F464C040F4F6
:1016C000683009F464C0673509F05FC08CE508959F
:1016D000643609F444C0653609F057C08DE60895B4
:1016E000673709F44EC038F46D36B9F16E3609F03B
:1016F0004CC085E608956438A1F1E8F56C3709F02F
:1017000044C088E608956C38A1F178F4693869F12D
:1017100030F4673841F16838C1F58EE708956A38CA
:1017200031F16B3891F584E008956F3881F030F431
:101730006D3859F06E3849F587E608956139F9F04A
:1017400040F0623911F589E0089587E708958FE741
:1017500008958BE7089582E6089584E608958EE65D
:1017600008958CE7089582E008958CE0089583E061
:10177000089585E0089588E0089580E1089581E066
:10178000089588E5089583E50895862F089586E7EE
:101790000895CF93DF93EC016F3B41F028F486E589
:1017A000860F823030F402C06C3F19F41B868FEF35
:1017B000B5C08B85813009F44AC038F0823009F415
:1017C0007AC0833009F495C0A8C08A819B81823990
:1017D0002BEA920721F4CE010E94400B06C081390A
:1017E0009B4A21F4CE010E94540B682F663809F100
:1017F00068F46338D1F020F4603819F582E073C0E2
:101800006438A9F06538E9F468E61DC06C38A9F0C1
:1018100030F4673881F06B38A1F461E014C06D38A2
:1018200071F0603F71F481E05EC062E00CC06FE770
:101830000AC068E708C060E006C069E004C06AE06A
:1018400002C067FD6AC0CE010E94FF0766C01B860A
:101850008A819B8182392BEA920721F4CE010E9472
:10186000400B06C081399B4A21F4CE010E94540BE3
:10187000682F862F90E0FC01E358F109EB30F10569
:10188000A0F4E65DFE4F0C940E1B62E010C06FE703
:101890000EC068E60CC068E70AC060E008C061E0FE
:1018A00006C069E004C06AE002C067FD36C0CE0130
:1018B0000E942C0832C0653279F030F4663171F044
:1018C0006E3199F460E00BC0663221F0603F69F43C
:1018D00083E009C06DE503C063E501C061E5CE01A9
:1018E0000E94FF0704C08B8718C00E94F6071B8662
:1018F00014C06E3169F020F46631B9F761E509C0B2
:10190000653221F0663289F76DE503C063E501C0F9
:1019100060E0CE010E942C08EACF80E0DF91CF91F9
:101920000895CF93DF93EC01E881F98183818823C7
:1019300091F08381807551F488858B3011F48CE0AF
:1019400088878381823011F48DE088871382E88153
:10195000F9811182108288819981FC0122812223E0
:1019600089F032812D81321769F025FF04C0FC0116
:10197000328134FD62C124FD5CC1FC0122812D83D2
:1019800011821082E8854E2F50E04E30510508F04C
:1019900078C1FA01EB5CFE4F0C940E1B0E94A21A58
:1019A0009F838E83888199810E948C0481E020C16D
:1019B000888199810E94C2040196D1F78E819F810E
:1019C0000E94BA1A893B9B4008F45BC182E010C1B7
:1019D0006FEF0E9407058A3F910541F183E008C13E
:1019E0000E9496042E98269A2F98279A0E94A21A4F
:1019F0009F838E8384E0FCC08E819F810E94BA1AEF
:101A0000853F914008F43DC185E0F2C02E982698AC
:101A10002F982798888199810E94990488819981BB
:101A20000E948C040E94A21A9F838E8386E0E0C0ED
:101A30000E94C204019609F424C10E94A21A9F8345
:101A40008E8387E0D5C08E819F810E94BA1A853F20
:101A5000914010F089E08887888199810E94C204B2
:101A6000019609F40EC10E94A21A9F838E8388E01A
:101A7000BFC08E819F810E94BA1A853F914010F0AD
:101A800089E08887888199810E94C204019609F4BF
:101A9000F8C089E0ADC0CE010E94D6089B838A833E
:101AA000009711F482E005C08F3FEFEF9E0719F415
:101AB00081E08C8364C09C012D5F3F4F2230310553
:101AC00088F38F3F910511F484E0F3CF9C012558F2
:101AD0003B4A2230310508F4C1C08239FBEA9F0736
:101AE00009F4BCC09C0120593B4A2230310598F4CE
:101AF00082E08C8360EF888199810E9407058A3F8C
:101B0000910579F562E8888199810E9407058A3FED
:101B1000910539F534C0803B2FEB920711F483E037
:101B2000C8CF88278115EBEA9E0709F4BBCF811542
:101B3000FFEB9F07A1F381159F4789F360EF888131
:101B400099810E9407058A3F910509F087C062E0EC
:101B5000888199810E9407058A3F910509F07EC01E
:101B6000A1CF8A819B8181399B4A49F460EF8881AA
:101B700099810E9407058A3F910509F465C08AE0B2
:101B800037C02C81223029F0233039F468EF0E94CD
:101B900007050E947B160E94A7088BE08887888132
:101BA00099810E94C204682F282F392F2F3F8FEF71
:101BB000380709F466C08C81843009F462C02115AD
:101BC000310519F02F3F310529F40E94F6070E94D4
:101BD0006D1857C0823071F0833081F0813009F088
:101BE00050C0CE010E9450098F3F09F04AC08CE0DE
:101BF000888747C0CE010E94870AF6CFCE010E9497
:101C0000C90BF2CF6EEF0E9407058A3A910509F4DD
:101C100040CF1B821A821C821D820E94F607888197
:101C200099810E94A5040E94F6070E946D181886EB
:101C300028C0FC01228125FFA0CE28852B3009F089
:101C40009CCE2CE0288799CE63E0888199810E9400
:101C500007058A3F910509F092CF61CF60EF888137
:101C600099810E9407058A3F910509F01BCF63E027
:101C7000888199810E9407058A3F910509F012CF5A
:101C80004ECF81E0DF91CF9108950E94790E8BE3D2
:101C900093E00C94910CEBE3F3E08EE193E09183FD
:101CA0008083138212821482158210861186128616
:101CB00013860C94F607CF93C82F82958F708A30C5
:101CC00010F097E301C090E3890F0E94DF0FCF70FF
:101CD000CA3010F480E301C087E38C0FCF910C94DD
:101CE000DF0F1092800081E08093810080936F006D
:101CF0000895E0910003F091010380910203909117
:101D000003038E179F0769F183810E945B0EE091A8
:101D10000003F091010382810E945B0EE0910003B9
:101D2000F091010381810E945B0E8AE30E94DF0F24
:101D3000E0910003F091010380810E945B0E80E23C
:101D40000E94DF0F8091000390910103049681159A
:101D500023E0920711F480E091E0909301038093D7
:101D60000003089520910203309103038091000342
:101D7000909101032817390719F00E94790EF2CFCC
:101D800008950F920FB60F9200905703039400929C
:101D900057030F900FBE0F9018958091640408951B
:101DA00008950895CF93DF9320919404243049F54A
:101DB00021E02093E90021E8215059F03091E8001A
:101DC00035FD07C0EFE3F1E03197F1F700C0000007
:101DD000F3CF2091E80025FF14C0EC0140E050E073
:101DE00068E070E00E94A6128091E8008E778093F0
:101DF000E80088E0FE01ACE5B4E001900D928A9520
:101E0000E1F7DF91CF910895CF93C0915A03C111AB
:101E10000BC00E94AE1A643C79408105910520F008
:101E200081E080935A03C1E08C2FCF9108950895EB
:101E300080919304811104C00E9412150C946F15B7
:101E40000895109293040895089542E061EC81E0B2
:101E50000E941F1246E361EC83E00C941F128091F4
:101E60009604833009F453C030F4813071F082302D
:101E700009F48CC008958A3009F478C08B3009F4D5
:101E80005EC0893009F09AC020C080919504813AE3
:101E900009F094C08091E800877F8093E8008091EA
:101EA000990490919A04892B21F468E08CE594E0E0
:101EB00003C060E080E090E070E00E94F312809147
:101EC000E8008B778093E800089580919504813233
:101ED00009F074C08091990490919A04892B09F0BB
:101EE0006DC08091E800877F8093E8008091E800D2
:101EF00082FD05C0809194048111F8CF5FC080916C
:101F0000F100809364048091E8008B7753C0809146
:101F10009504813A09F052C08091990490919A04F5
:101F2000892B09F04BC08091E800877F8093E800FF
:101F30008091E80080FFFCCF8091140336C080912F
:101F400095048132D9F58091990490919A04892B56
:101F5000A9F58091E800877F8093E8000E945412E1
:101F600080919704809314030C946D1880919504CC
:101F7000813221F58091E800877F8093E8000E94FC
:101F8000541280919804809365040895809195047B
:101F9000813AA1F48091E800877F8093E8008091E6
:101FA000E80080FFFCCF809165048093F100809170
:101FB000E8008E778093E8000C9454120895FF9205
:101FC0000F931F93CF93DF93D82F0FB607FE83C0D5
:101FD00080919404843081F08091070390E0019611
:101FE0002091090330E0822393232091080330E0FD
:101FF0008217930709F0CDC00E94040F811110C011
:102000008091070390E001962091090330E082233C
:1020100093232091080330E08217930709F0B9C099
:102020000E94A21A8C01C091E900CF709091EC003F
:10203000892F817090FD80E8C82B83E08093E900B0
:1020400085E0F82E8091EB0085FD42C08091EB0089
:1020500080FF3EC08091EE0087FF3AC08091080368
:1020600090910703981709F457C09091E80095FFE5
:102070008EC0E0910503F0910603E80FF11D208169
:102080008F5F909109038923809308032093F100C7
:102090008091E80085FDE2CF8091E80080FFDECFEF
:1020A0008091E8008E778093E800F0920403D6CF09
:1020B0008091070390E001962091090330E082238C
:1020C00093232091080330E08217930709F44CC052
:1020D000CF70C093E90040910703842F90E00196F0
:1020E0002091090330E0822393232091080330E0FC
:1020F0008217930709F450C0E0910503F09106039D
:10210000E40FF11DD083809107038F5F9091090345
:1021100089238093070340C08091E80085FF37C082
:10212000D093F10021E03091F3008091F20090E033
:10213000932B892B91F08091E80080FF0EC0809155
:10214000E80085FF03C01092F100F9CF8091E8000C
:102150008E778093E800F0920403222309F4A8CF3D
:10216000CF70C093E90018C080910403882309F45C
:10217000AFCF0E94A21A9C018017910711F4890128
:1021800061CF90910403915090930403F8CF20E025
:10219000CACF40910703B0CF80E0DF91CF911F916C
:1021A0000F91FF9008958091640480935B031092D7
:1021B00064040E947B080C946D180C94D3100E9448
:1021C0004E1A80919204882329F00E945B1A811193
:1021D0000C94091208950E94701A80915B038093F9
:1021E000640408950C94EB1008950C94F410CF93AC
:1021F00084B7877F84BF0FB6F894A895809160005C
:10220000886180936000109260000FBE90E080E8CB
:102210000FB6F89480936100909361000FBE8AE03E
:1022200093E00E9476160E945B080E94BE160E94F0
:1022300012150E946F1578940E94C0168091940424
:10224000843029F00E945B160E94F410F7CF0E94A0
:10225000040F8823B9F30E94F510C3E08091940421
:10226000853019F40E94DF10F9CF0E94391A0E94BC
:10227000C4162091E4003091E500809158039091BC
:1022800059032817390709F468C08091E400909138
:10229000E50090935903809358030E94040F88230C
:1022A00009F45BC080919404843009F056C0809199
:1022B000E9008F702091EC00922F917020FD90E842
:1022C000892BC093E9009091EB0090FF43C090915F
:1022D000EE0097FF3FC09091080320910703291754
:1022E00009F12091E80025FF1DC0E0910503F09160
:1022F0000603E90FF11D30819F5F209109039223AE
:10230000909308033093F1009091E80095FDE3CF9E
:102310009091E80090FFDFCF9091E8009E77909336
:10232000E800D9CF9091F3002091F20030E0392BF2
:10233000232B81F09091E80090FF0CC09091E80071
:1023400095FF03C01092F100F9CF9091E8009E77BD
:102350009093E8008F708093E9000E945B167ECF17
:10236000292F332723303105C9F060F4213031059E
:1023700081F02230310509F044C08BE390E02EE576
:1023800036E043C021323105E1F02232310549F116
:1023900038C082E190E029E936E037C099278130E2
:1023A000910549F028F0029761F5EAE1F6E005C0F1
:1023B000EAE5F6E002C0E0E5F6E0849190E09F01F6
:1023C00024C06115710541F061307105D1F489E0D7
:1023D00090E029E836E019C089E090E020E736E097
:1023E00014C06115710541F06130710551F482E24C
:1023F00090E02BEA36E009C080E490E02DEC36E076
:1024000004C080E090E020E030E0FA0131832083D6
:10241000089580E189BD82E189BD09B400FEFDCF48
:102420008091D8008F7D8093D8008091E0008260F9
:102430008093E0008091E00081FDFCCF0895982F0B
:10244000973068F59093E900981739F07091EC0097
:102450002091ED005091F00003C0242F762F50E022
:1024600021FD02C09F5FECCF3091EB003E7F3093A7
:10247000EB003091ED003D7F3093ED003091EB00AB
:1024800031603093EB007093EC002093ED0050939B
:10249000F0002091EE0027FDE5CF80E008958F70D9
:1024A0008093E90081E008958091950487FF11C031
:1024B0008091E80082FD05C0809194048111F8CFDD
:1024C00011C08091E8008B770BC080919404882321
:1024D00049F08091E80080FFF8CF8091E8008E7786
:1024E0008093E80008952091E4003091E50095E69E
:1024F0004091EC00842F817040FF23C08091E80060
:1025000080FD1DC080919404882399F0853099F056
:102510008091EB0085FD11C04091E4005091E500F1
:102520002417350729F3915011F09A01E1CF84E087
:10253000089582E0089583E0089581E0089580E0A1
:1025400008954091E80042FFDDCF0895CF92DF92D9
:10255000EF92FF920F931F93CF93DF93EC018B01C8
:102560007A010E947312811135C0E114F10439F02F
:10257000F70180819181081B190BC80FD91FC12C4D
:10258000D12C0115110529F18091E80085FD18C0B5
:102590008091E8008E778093E8000E945B16E1143A
:1025A000F10449F0F70180819181C80ED91ED182D2
:1025B000C08285E00FC00E947312882311F30AC005
:1025C00089918093F10001501109FFEFCF1ADF0AC2
:1025D000D8CF80E0DF91CF911F910F91FF90EF90C6
:1025E000DF90CF90089520919B0430919C04261792
:1025F000370748F06115710539F42091E8002E770E
:102600002093E80001C0B901FC0120E061157105CB
:1026100079F1809194048823F1F18530F1F1809172
:10262000E80083FD3CC08091E80082FD2EC08091CF
:10263000E80080FFEBCF2091F3008091F20090E062
:10264000922B6115710551F08830910538F4219174
:102650002093F100615071090196F3CF21E00897B2
:1026600009F020E08091E8008E778093E800CECFDB
:102670002111CFCF0AC080919404882361F0853066
:1026800061F08091E80083FD0AC08091E80082FF3C
:10269000F2CF80E0089582E0089583E0089581E01C
:1026A000089520919B0430919C042617370748F029
:1026B0006115710539F42091E8002E772093E80028
:1026C00001C0B901FC0120E06115710591F1809113
:1026D0009404882309F440C0853009F43FC08091F8
:1026E000E80083FD3DC08091E80082FD2FC080910D
:1026F000E80080FFE9CF2091F3008091F20090E0A4
:10270000922B6115710559F08830910540F42491A0
:102710002093F1003196615071090196F2CF21E0CA
:10272000089709F020E08091E8008E778093E80018
:10273000CBCF2111CCCF0AC080919404882361F0C3
:10274000853061F08091E80083FD0AC08091E80047
:1027500082FFF2CF80E0089582E0089583E008953B
:1027600081E008951F93CF93DF93CDB7DEB7AA978B
:102770000FB6F894DEBF0FBECDBFE5E9F4E080915F
:10278000F100819324E0ED39F207C9F70E942F0F81
:102790008091E80083FF2EC180919504909196046A
:1027A000492F50E04A30510508F024C1FA01ED5B91
:1027B000FE4F0C940E1B803821F0823809F01AC1AC
:1027C00008C08091910490919204992389F08260CD
:1027D0000FC0809199048F70873008F00BC18093EF
:1027E000E9008091EB0085FB882780F91092E900D1
:1027F0009091E800977F9093E8008093F100109209
:10280000F100D1C0282F2D7F09F0F4C0882319F0E2
:10281000823061F0EFC080919704813009F0EAC006
:10282000933009F080E0809392042EC08091970449
:1028300081112AC0809199048F702FEF280F2630C4
:1028400008F0D8C08093E9002091EB0020FF1CC065
:10285000933021F48091EB00806214C09091EB00E2
:1028600090619093EB0021E030E0A90102C0440F99
:10287000551F8A95E2F74093EA001092EA00809192
:10288000EB0088608093EB001092E9008091E800F3
:10289000877F8093E8000E945412ACC08111AAC0C7
:1028A000109197041F778091E3008078812B8093AB
:1028B000E3008091E800877F8093E8000E94541233
:1028C0008091E80080FFFCCF8091E30080688093D6
:1028D000E300111102C082E001C083E08093940400
:1028E00089C08058823008F085C08091970490910B
:1028F00098048C3D53E0950779F583E08A838AE25A
:1029000089834FB7F894DE01139620E03EE051E250
:10291000E32FF0E050935700E49120FF03C0E295CD
:10292000EF703F5FEF708E2F90E0EA3010F0C796A7
:1029300001C0C0968D939D932F5F243149F74FBFFF
:102940008091E800877F8093E8006AE270E0CE0122
:1029500001960E94F31216C06091990470919A0436
:10296000AE014F5F5F4F0E94B011BC01892B09F48B
:1029700041C09091E800977F9093E80089819A8107
:102980000E9451138091E8008B778093E80032C059
:10299000803881F58091E800877F8093E8008091FE
:1029A00090048093F1008091E8008E7772CF8111BE
:1029B00021C0809197049091980499270297D4F4AC
:1029C0008091E800877F8093E8008091970480934E
:1029D00090040E94541280919004811106C080914D
:1029E000E30087FD02C081E001C084E0809394048D
:1029F0000E94250F8091E80083FF0AC08091E800C3
:102A0000877F8093E8008091EB0080628093EB00E9
:102A1000AA960FB6F894DEBF0FBECDBFDF91CF915F
:102A20001F9108950E9480150E948815E0EEF0E045
:102A3000808181608083E8EDF0E080818F77808302
:102A400019BCA7EDB0E08C918E7F8C9380818F7E36
:102A500080831092930408950F931F93CF93DF9375
:102A60000E9480150E948815C8EDD0E088818F777C
:102A7000888388818068888388818F7D888319BC5A
:102A80001092940410929004109292041092910467
:102A900000EE10E0F80180818B7F80838881816067
:102AA000888342E060E080E00E941F12E1EEF0E0E7
:102AB00080818E7F8083E2EEF0E080818160808380
:102AC000808188608083F80180818E7F8083888107
:102AD00080618883DF91CF911F910F910895E8ED78
:102AE000F0E080818F7E8083E7EDF0E0808181607F
:102AF000808384E082BF81E0809393040C942C1542
:102B0000E8EDF0E080818E7F80831092E2000895EE
:102B10001092DA001092E10008951F920F920FB602
:102B20000F9211242F933F934F935F936F937F9353
:102B30008F939F93AF93BF93EF93FF938091E100A7
:102B400082FF0BC08091E20082FF07C08091E1000C
:102B50008B7F8093E1000E945A168091DA0080FFFB
:102B60001FC08091D80080FF1BC08091DA008E7F4B
:102B70008093DA008091D90080FF0DC080E189BD8B
:102B800082E189BD09B400FEFDCF81E08093940409
:102B90000E94180F05C019BC109294040E94210FC6
:102BA0008091E10080FF19C08091E20080FF15C094
:102BB0008091E2008E7F8093E2008091E20080614C
:102BC0008093E2008091D80080628093D80019BC85
:102BD00085E0809394040E94DD108091E10084FFE1
:102BE00030C08091E20084FF2CC080E189BD82E189
:102BF00089BD09B400FEFDCF8091D8008F7D809300
:102C0000D8008091E1008F7E8093E1008091E20006
:102C10008F7E8093E2008091E20081608093E200E9
:102C200080919004882311F084E007C08091E30034
:102C300087FD02C081E001C083E0809394040E947C
:102C4000F2108091E10083FF24C08091E20083FFB5
:102C500020C08091E100877F8093E10082E0809333
:102C60009404109290048091E1008E7F8093E100A3
:102C70008091E2008E7F8093E2008091E20080618B
:102C80008093E20042E060E080E00E941F120E9418
:102C9000240FFF91EF91BF91AF919F918F917F9101
:102CA0006F915F914F913F912F910F900FBE0F90B9
:102CB0001F9018950895CF93809194048823A1F0D4
:102CC000C091E900CF709091EC00892F817090FD48
:102CD00080E8C82B1092E9008091E80083FD0E94F3
:102CE000B213CF70C093E900CF91089590936B0415
:102CF00080936A040895E0916A04F0916B04309720
:102D000021F00190F081E02D099480E00895E09198
:102D10006A04F0916B04309721F00280F381E02D7A
:102D2000099408952091680430916904281739079F
:102D300071F09093690480936804E0916A04F091C3
:102D40006B04309721F00680F781E02D09940895F7
:102D500020916604309167042817390771F0909329
:102D6000670480936604E0916A04F0916B043097E5
:102D700021F00084F185E02D099408950C946917E1
:102D80000E94991A0C946B088F929F92AF92BF92F7
:102D9000CF92DF92EF92FF920F931F93CF93DF9327
:102DA00000D000D01F92CDB7DEB70E94450E0DE6D1
:102DB00014E0F12C8F2D0E9472084C01F801A080C4
:102DC000B180A826B926A114B10439F4F3940E5F9A
:102DD0001F4FF8E0FF12EECF39C080918B0481FDC8
:102DE0000E947D17E12CCC24C394D12CC5018C21E9
:102DF0009D21892B21F1E982FA8221E0C4018C21F5
:102E00009D21892B09F420E02B830E94A21A816066
:102E1000782F9D838C8349815A816B818D810E949B
:102E2000061949815A816B817C818D810E943B1AF0
:102E3000F801808191818C259D2591838083E39485
:102E4000CC0CDD1CF0E1EF12D1CFC0CF8FEF898326
:102E50008A831B820E94A21A8160782F9D838C83B3
:102E600049815A816B818D810E9406190E943A1A0C
:102E70000E947B1690916C048917B9F00E947B1612
:102E800080936C040F900F900F900F900F90DF9134
:102E9000CF911F910F91FF90EF90DF90CF90BF9057
:102EA000AF909F908F900C944A1A0F900F900F90B4
:102EB0000F900F90DF91CF911F910F91FF90EF90A6
:102EC000DF90CF90BF90AF909F908F9008950C941B
:102ED000A7080895CF93C62F0E94720821E030E022
:102EE00002C0220F331FCA95E2F72823392381E05D
:102EF000232B09F480E0CF91089508950895089553
:102F0000882309F4BBC09CEF980F913A18F40E94F3
:102F10008E190DC090E2980F983058F4877091E0A8
:102F200001C0990F8A95EAF7892F0E94C9190C945C
:102F300078199BE5980F933070F4853A29F0863A1A
:102F400031F083E890E005C081E890E002C082E8BB
:102F500090E00C94921698E5980F973108F08EC087
:102F6000883A09F445C0893A09F445C08A3A09F417
:102F700045C08B3A09F445C08C3A09F445C08D3AF6
:102F800009F445C08E3A09F445C08F3A09F445C0AA
:102F9000813B09F445C0803B09F445C0823B09F4FC
:102FA00045C0833B09F445C0843B09F445C0853BDB
:102FB00009F445C0863B09F445C0873B09F445C088
:102FC000883B09F445C0893B09F445C08A3B09F4B4
:102FD00045C08B3B09F445C08C3B09F445C08D3B93
:102FE00009F445C08E3B09F445C080E090E044C040
:102FF00082EE90E041C089EE90E03EC08AEE90E023
:103000003BC085EB90E038C086EB90E035C083EBA9
:1030100090E032C084EB90E02FC087EB90E02CC0B2
:103020008CEC90E029C08DEC90E026C083E891E024
:1030300023C08AE891E020C082E991E01DC084E9C4
:1030400091E01AC081E292E017C083E292E014C0DE
:1030500084E292E011C085E292E00EC086E292E046
:103060000BC087E292E008C08AE292E005C08FE6DA
:1030700090E002C080E790E00C94A81608958823A1
:1030800029F19CEF980F913A18F40E94AB190DC0EA
:1030900090E2980F983058F4877091E001C0990F32
:1030A0008A95EAF7892F0E94CF190C9478199BE52D
:1030B000980F933020F480E090E00C949216885A98
:1030C000873120F480E090E00C94A81608950E94C7
:1030D000E6190E94BB190C9478190E94D6190C9419
:1030E0006718FF920F931F93CF93DF9300D000D008
:1030F0001F92CDB7DEB78C010E944C1A81117BC0A4
:1031000085E0F801DE01119601900D928A95E1F7B4
:10311000F80140815181238134812115310531F03D
:103120005F3F31F481E04F3F19F403C081E001C0FB
:1031300080E080FD60C0F801028149835A830B83DF
:10314000722F3D832C83602F8D810E944319F82EAE
:10315000892F82958F70823018F08E3089F14BC0A4
:10316000192F1F70907F11F01295107F0023A1F08E
:10317000112329F0812F0E94D9190E9478198F2DCF
:103180000F900F900F900F900F90DF91CF911F91A4
:103190000F91FF900C9480178F2D0E943F181123E0
:1031A00051F1812F0E94DF190F900F900F900F9017
:1031B0000F90DF91CF911F910F91FF900C94781990
:1031C000F11019C00023B9F00E946D18FFEF20E73D
:1031D00082E0F15020408040E1F700C000000F90F5
:1031E0000F900F900F900F90DF91CF911F910F9143
:1031F000FF900C94EF1A0F900F900F900F900F907C
:10320000DF91CF911F910F91FF900895CF93DF939E
:10321000CDB7DEB72A970FB6F894DEBF0FBECDBF8D
:10322000942F4E83252F5F83688779878A87498506
:103230005A85452B31F02F3F31F481E09F3F19F43F
:1032400003C081E001C080E080FD07C04E815F8146
:10325000688579858A850E943B1A85E0FE0136964D
:10326000DE01119601900D928A95E1F7CE0101964B
:103270000E9471182A960FB6F894DEBF0FBECDBF1C
:10328000DF91CF910895CF93DF9300D000D01F92AC
:10329000CDB7DEB7942F4983252F5A837C838D8346
:1032A0004C815D81452B31F02F3F31F481E09F3F10
:1032B00019F403C081E001C080E080FF03C080E01A
:1032C00090E00EC060917D0470917E0480917F0437
:1032D000909180040E94E91969817A810E947D0899
:1032E0000F900F900F900F900F90DF91CF91089556
:1032F000E0911503F091160380918A048083E09198
:103300001503F0911603908180918904892B8083A5
:1033100080911503909116030C9487162091150344
:1033200030911603F90132969FEF40E051918517D5
:1033300089F09F3F19F4511101C0942F4F5F46301F
:10334000A9F79F3F39F0F901E90FF11D97FDFA95B3
:10335000828308950895E0911503F09116039F016B
:103360002A5F3F4F9281891301C012823196E21782
:10337000F307C1F7089581E090E0E0911503F09123
:103380001603E80FF91F1082019688309105A9F7FE
:10339000089590918A04892B80938A0408958095DA
:1033A00090918A04892380938A04089510928A0454
:1033B000089590918904892B8093890408958095BC
:1033C0009091890489238093890408951092890437
:1033D0000895CF92DF92EF92FF926C01EE24FF24CA
:1033E000C114D104E104F10421F0C701B60120E1C8
:1033F00001C020E0C72ED82EE92EFF24C114D1042D
:10340000E104F10419F0285FC701B6016B017C01EA
:1034100054E0F694E794D794C7945A95D1F7C11421
:10342000D104E104F10419F02C5FC701B6016B016E
:103430007C0142E0F694E794D794C7944A95D1F77B
:10344000C114D104E104F10419F02E5FC701B601E3
:10345000DC01CB01B695A79597958795892B8A2B8B
:103460008B2B09F02F5F822FFF90EF90DF90CF9092
:10347000089508950895CF93DF9300D000D01F9250
:10348000CDB7DEB70F900F900F900F900F90DF9198
:10349000CF9108950C94671780E0089583B7817FDA
:1034A0008C6083BF83B7816083BF7894889583B72E
:1034B0008E7F83BF0895CF930E947E170E94450E92
:1034C0000E947F17C0E08C2F0E947208892B29F47C
:1034D000CF5FC830C1F780E001C081E0CF9108958F
:1034E0000E947B080C946D181F920F920FB60F92DA
:1034F00011248F939F93AF93BF9380918C049091ED
:103500008D04A0918E04B0918F044196A11DB11D30
:1035100080938C0490938D04A0938E04B0938F04B9
:10352000BF91AF919F918F910F900FBE0F901F9001
:10353000189582E084BD93E095BD9AEF97BD809386
:103540006E0008952FB7F89480918C0490918D04AB
:10355000A0918E04B0918F042FBF08952FB7F894D7
:1035600060918C0470918D0480918E0490918F04F1
:103570002FBF08959C014FB7F89480918C049091CF
:103580008D04A0918E04B0918F044FBF821B930BCA
:10359000089578941F920F920FB60F9211248F9373
:1035A0009F93AF93BF9380918C0490918D04A091D1
:1035B0008E04B0918F040196A11DB11D80938C04DF
:1035C00090938D04A0938E04B0938F04BF91AF911C
:1035D0009F918F910F900FBE0F901F9018950E9492
:1035E0001215F89487E797E79093010880930008F5
:1035F00087E090EBDC0180939D0490939E04A09360
:103600009F04B093A0049CE088E10FB6F894A895BD
:10361000809360000FBE90936000FFCFEE0FFF1FFE
:0C3620000590F491E02D0994F894FFCF80
:10362C0000010001055C030000FFCD0ED20ED00E90
:0E363C00170FD10E01810400080004000200E7
:00000001FF
